:100000000C9450000C945F010C945F010C945F0100
:100010000C945F010C945F010C945F010C945F01E0
:100020000C945F010C945F010C945F010C945F01D0
:100030000C945F010C945F010C945F010C945F01C0
:100040000C945F010C945F010C945F010C945F01B0
:100050000C945F01007600B30002C200B300C2003E
:1000600002FF00D100DF00031D00C200D100030E1B
:1000700000DF00ED00032B00ED00F100033900F17B
:1000800000F500033D00F500F900034100F900FD13
:10009000000345006000768000FD01000003490078
:1000A00011241FBECFE5D8E0DEBFCDBFE4E5F0E010
:1000B00040E017C0B591A59135912591059107FDB7
:1000C0000CC095918591EF01F92FE82F05900D92C5
:1000D000A217B307D9F7FE0104C01D92A217B307F8
:1000E000E1F7EF39F40731F70E947A000C947800B9
:0400F000F894FFCFB2
:1000F400D09A0E9448010E94410186E790E00E9444
:10010400150182E690E00E94FB0069EF70E082E650
:1001140090E00E943301892B61F0D89A0E944E012D
:100124008FED90E00E94150189EF90E00E94240178
:10013400E8CF65EF70E082E690E00E943301892BFE
:1001440061F0D8980E944E0182EC90E00E94150163
:1001540085EF90E00E942401D4CF61EF70E082E645
:1001640090E00E943301892B61F0D89A0E944E01DD
:1001740081ED90E00E94150181EF90E00E9424013E
:10018400C0CF6DEE70E082E690E00E943301892BCF
:1001940009F4B7CF8BB381708BBB0E944E0183EB04
:1001A40090E00E9415018DEE90E00E942401A9CFF9
:1001B400CF92DF92EF926B01E82EF6018491E7FC77
:1001C4008081F901549147FD508185130BC0882328
:1001D40041F08FEFC81AD80AE80A2F5F3F4F4F4FFC
:1001E400ECCF582F90E0851B9109EF90DF90CF90D2
:0201F40008956C
:1001F6000F931F93CF93DF93EC010E9457018883DF
:10020600833241F021968E010E94570189938332F1
:10021600D1F701C08E01F8011082DF91CF911F91B5
:040226000F91089597
:10022A00CF93DF93EC018881882331F021960E94D5
:0E023A00530189918111FBCFDF91CF9108957F
:10024800CF93DF93EC018881882331F021960E94B7
:0E0258005B0189918111FBCFDF91CF91089559
:100266009B0140E8BC0180E80E94DA0021E030E012
:0C027600892B11F020E030E0C901089550
:0E02820087B3806B87BB8DB183658DB90895FE
:0C0290008AB188618AB983E389B90895B6
:0A029C008DEF90E00E941501089517
:0802A6005D9BFECF8CB90895A9
:0802AE005F9BFECF8CB10895A7
:0802B6008FB9779BFECF08957C
:0402BE000C9400009C
:1002C200506C65617365207479706520274F312009
:1002D2002327206F7220274F32202327206F72207E
:1002E200274331202327206F7220274332202327E0
:0D02F20020746F2063686F6F7365090D0045
:0F02FF004C45442032206973204F4646090D00BC
:0F030E004C45442031206973204F4646090D00AD
:0E031D004C45442032206973204F4E090D00DC
:0E032B004C45442031206973204F4E090D00CF
:04033900433220002B
:04033D004F3220001B
:040341004331200024
:040345004F31200014
:03034900090D009B
:00000001FF
