:100000000C944C000C9457010C9457010C9457011C
:100010000C9457010C9457010C9457010C94570100
:100020000C9457010C9457010C9457010C945701F0
:100030000C9457010C9457010C9457010C945701E0
:100040000C9457010C9457010C9457010C945701D0
:100050000C945701044C045B0002B2046A0478005B
:1000600002D0045B046A0002C1047804860002DE48
:100070000486048A0002EC048A048E0002F0048ED6
:1000800004920002F4049204960002F80060044C0A
:1000900080049604990002FC11241FBECFE5D8E02D
:1000A000DEBFCDBFE4E5F0E040E017C0B591A5911B
:1000B00035912591059107FD0CC095918591EF0132
:1000C000F92FE82F05900D92A217B307D9F7FE017B
:1000D00004C01D92A217B307E1F7E839F40731F71E
:0C00E0000E9476000C947400F894FFCF8E
:1000EC00D09A0E9440010E94390182E690E00E9461
:1000FC00F30062E974E082E690E00E942B01892B08
:10010C0061F0D89A0E94460188E794E00E940D01A4
:10011C0082E994E00E941C01E8CF6EE874E082E66C
:10012C0090E00E942B01892B61F0D8980E94460127
:10013C008BE594E00E940D018EE894E00E941C0176
:10014C00D4CF6AE874E082E690E00E942B01892B00
:10015C0061F0D89A0E9446018AE694E00E940D0153
:10016C008AE894E00E941C01C0CF66E874E082E645
:10017C0090E00E942B01892B09F4B7CF8BB38170CF
:10018C008BBB0E9446018CE494E00E940D0186E832
:08019C0094E00E941C01A9CFB0
:1001A400CF92DF92EF926B01E82EF6018491E7FC87
:1001B4008081F901549147FD508185130BC0882338
:1001C40041F08FEFC81AD80AE80A2F5F3F4F4F4F0C
:1001D400ECCF582F90E0851B9109EF90DF90CF90E2
:0201E40008957C
:1001E6000F931F93CF93DF93EC010E944F018883F7
:1001F600833241F021968E010E944F01899383320A
:10020600D1F701C08E01F8011082DF91CF911F91C5
:040216000F910895A7
:10021A00CF93DF93EC018881882331F021960E94E5
:0E022A004B0189918111FBCFDF91CF91089597
:10023800CF93DF93EC018881882331F021960E94C7
:0E024800530189918111FBCFDF91CF91089571
:100256009B0140E8BC0180E80E94D20021E030E02A
:0C026600892B11F020E030E0C901089560
:0E02720087B3806B87BB8DB183658DB908950E
:0C0280008AB188618AB983E389B90895C6
:0A028C0086E994E00E940D01089538
:080296005D9BFECF8CB90895B9
:08029E005F9BFECF8CB10895B7
:0802A6008FB9779BFECF08958C
:0402AE000C940000AC
:0F02B2004C45442032206973204F4646090D0009
:0F02C1004C45442031206973204F4646090D00FB
:0E02D0004C45442032206973204F4E090D002A
:0E02DE004C45442031206973204F4E090D001D
:0402EC004332200079
:0402F0004F32200069
:0402F4004331200072
:0402F8004F31200062
:0302FC00090D00E9
:00000001FF
